:100000000C94CF030C9416040C9416040C94160450
:100010000C9416040C9416040C9416040C941604F8
:100020000C9416040C9416040C942C290C94FF299F
:100030000C94B91F0C9416040C9416040C9416041A
:100040000C9416040C9416040C9416040C941604C8
:100050000C9416040C9421200C9416040C94160491
:100060000C9416040C9416040C9416040C941604A8
:100070000C9416040C9416040C9416040C94160498
:100080000C9416040C9416040C9416040C94160488
:100090000C9416040C9416040C9416040C94160478
:1000A0000C9416040C9416040C9416046572676F75
:1000B000646F782F6D616E676F204020353537395A
:1000C00063312D6469727479006572676F646F784B
:1000D0002F6D616E676F2040203535373963312DC4
:1000E0006469727479000000F0A1010035000253C8
:1000F0003C70010000001E00140004001D000100FF
:10010000E3001F001A0016001B0001002C00200055
:1001100007000800060050002B61210009001700AD
:1001200019004F00010022000E000A000500000027
:100130007B002D0000710000330000007D002102D3
:1001400001710000037100004C0023000D001C0031
:1001500013000000290024001800110010005200B4
:100160000100250015000C00360051002A00260071
:100170000F001200370001002800270031000B009B
:100180003800010001000271015334643D70010028
:100190000000010001000100010001000000010059
:1001A00001000100010001000100010001005000F8
:1001B0000100010001000100520051000100010096
:1001C0000100010001004F000100010001000100D9
:1001D00001000100010000003B700100010000006F
:1001E000010000003A700100010000000100000061
:1001F00037700100010001000100000036700100AD
:1002000001000100A800AA00030001000100010094
:10021000AC00A9000200010001000100AB000100D8
:10022000357001000100010001000100347001007F
:1002300001000100010001000000010001000100B7
:1002400001000100000001000100010001000100A7
:10025000010001000100F20001000100F5000100B1
:10026000F000F10001000100F40001000100F300C2
:100270000100010001000100010001000100000077
:100280000100010001000000010000000100010068
:100290000100000001000000010001000100010058
:1002A00001000000010001005F005C005900010036
:1002B0000100010060005D005A0001000100010022
:1002C00061005E005B00010001000100010001000F
:1002D0000100010001000100010001000100010016
:1002E000000000000000000000002A2B2800000091
:1002F00000000000000000000000000000290000D5
:1003000000002C1E3420212224342627252E362DB1
:100310003738271E1F202122232425263333362E4B
:1003200037381F0405060708090A0B0C0D0E0F10BD
:100330001112131415161718191A1B1C1D2F313002
:10034000232D350405060708090A0B0C0D0E0F10A6
:100350001112131415161718191A1B1C1D2F3130E2
:10036000354C00000000000000000000000000000C
:10037000000000000000000000000000000000007D
:100380000000000101010101010001010101000063
:10039000000000000000000000000000010001005B
:1003A000010101010101010101010101010101013D
:1003B0000101010101010101010101010100000030
:1003C000010100000000000000000000000000002B
:1003D000000000000000000000000000000101011A
:1003E0000100643214643214783C1E1E140A0500A5
:1003F0000000000101010202030405050607090AC5
:100400000B0C0E0F1112141517191B1D1F2123257C
:10041000282A2C2F313436393B3E414346494C4F34
:100420005255585A5D6164676A6D707376797C7F46
:100430008386898C8F9295989B9EA2A5A7AAADB022
:10044000B3B6B9BCBEC1C4C6C9CBCED0D3D5D7DA3A
:10045000DCDEE0E2E4E6E8EAEBEDEEF0F1F3F4F501
:10046000F6F8F9FAFAFBFCFDFDFEFEFEFFFFFFFFCA
:10047000FFFFFFFEFEFEFDFDFCFBFAFAF9F8F6F5C4
:10048000F4F3F1F0EEEDEBEAE8E6E4E2E0DEDCDAEC
:10049000D7D5D3D0CECBC9C6C4C1BEBCB9B6B3B014
:1004A000ADAAA7A5A29E9B9895928F8C89868380E2
:1004B0007C797673706D6A6764615D5A5855524FE6
:1004C0004C494643413E3B393634312F2C2A2825AE
:1004D00023211F1D1B1917151412110F0E0C0B0AC7
:1004E00009070605050403020201010100000000DE
:1004F00000000000010101010101010101020202ED
:1005000002020202020203030303030303030404BF
:100510000404040405050505050606060606070786
:100520000707080808080909090A0A0A0A0B0B0B39
:100530000C0C0C0D0D0D0E0E0F0F0F1010111111D4
:100540001212131314141515161617171818191953
:100550001A1A1B1C1C1D1D1E1F1F202021222223B6
:1005600024252526272728292A2B2B2C2D2E2F2FF3
:1005700030313233343536363738393A3B3C3D3E0C
:100580003F4041424344464748494A4B4C4D4F50F7
:10059000515253555657585A5B5C5E5F60626364B4
:1005A0006667696A6C6D6E707173747678797B7C3E
:1005B0007E8081838486888A8B8D8F919294969891
:1005C0009A9B9D9FA1A3A5A7A9ABADAFB1B3B5B7AA
:1005D000B9BBBDBFC1C4C6C8CACCCFD1D3D6D8DA87
:1005E000DCDFE1E4E6E8EBEDF0F2F5F7FAFCFF160C
:1005F000034500720067006F0044006F0078002020
:100600000045005A00000016034500720067006FA5
:100610000044006F007800200045005A00000004EC
:1006200003090409026D00040100A0FA0904000096
:100630000103010100092111010001224000070509
:10064000810308000A0904010001030102000921D5
:1006500011010001224D000705820308000A090468
:1006600002000103000000092111010001223600EF
:100670000705830308000A090403000103000000C2
:10068000092111010001223900070584032000011E
:100690001201100100000008EDFE07130100010225
:1006A000000105010906A101050719E029E7150068
:1006B000250195087501810205081901290595058F
:1006C000750191029501750391010507190029F73C
:1006D0001500250195F875018102C005010980A169
:1006E0000185021601002603001A81002A83007585
:1006F0001095018100C0050C0901A10185031601B7
:1007000000269C021A01002A9C02751095018100A6
:10071000C005010902A1010901A10005091901296A
:100720000515002501950575018102950175038167
:10073000010501093009311581257F950275088170
:100740000609381581257F950175088106050C0A73
:1007500038021581257F950175088106C0C0050105
:100760000906A101050719E029E7150025019508EB
:100770007501810295017508810105081901290596
:100780009505750191029501750391010507190001
:1007900029FF150026FF00950675088100C0112469
:1007A0001FBECFEFDAE0DEBFCDBF04B603FE27C029
:1007B0008091860390918703A0918803B09189036B
:1007C0008730904BA740B04BD1F410928603109223
:1007D0008703109288031092890314BE84B7877F21
:1007E00084BF0FB6F894A8958091600088618093CB
:1007F0006000109260000FBEE0E0FFE3099512E098
:10080000A0E0B1E0E0EBFAE502C005900D92AC3259
:10081000B107D9F723E0ACE2B2E001C01D92A638DF
:10082000B207E1F70E947C260C94562D0C94000030
:100830001092B9008AE08093B800089594EA9093EA
:10084000BC009091BC0097FFFCCF9091B900987FBD
:10085000983021F0903111F081E008958093BB0031
:1008600084E88093BC008091BC0087FFFCCF80911E
:10087000B900887F883111F0803471F780E00895E5
:1008800084E98093BC008091BC0084FDFCCF089576
:100890008093BB0084E88093BC008091BC0087FFFC
:1008A000FCCF9091B900987F81E0983209F480E004
:1008B000089584E88093BC008091BC0087FFFCCF42
:1008C0008091BB00089580B38C7080BB81B3836F2F
:1008D00081BB089580915101811115C080E40E946F
:1008E0001E048093510181110CC082E10E944804D2
:1008F00080935101811105C08FEF0E9448048093BD
:1009000051010E94400484B1807F84B985B1807F09
:1009100085B98AB1837F8AB98BB1837F8BB93E98C1
:100920004698089508950C9492040C94F3050E943F
:10093000EF0A809351010E946A040E946304EBE372
:10094000F2E0ADE2B2E011921D9282E0E934F807E4
:10095000D1F70C9415080E94EF0A809351010E9470
:100960006A040E946304EBE3F2E0ADE2B2E01192AC
:100970001D9282E0E934F807D1F70895AF92BF9253
:10098000CF92DF92EF92FF920F931F93CF93DF935B
:1009900080915101882379F080912C028F5F8093A0
:1009A0002C02811108C00E94EF0A8093510181112D
:1009B00002C00E94810A8DE2C82E82E0D82E760104
:1009C00000E010E0AA24A394B12CD5E0C02F07309A
:1009D00008F072C08091510181111BC080E40E9417
:1009E0001E0480935101811112C082E10E944804CB
:1009F0008093510181110BC0C501002E01C0880FE9
:100A00000A94EAF780950E944804809351010E945D
:100A1000400480EA8A95F1F7C73008F06DC0C091B4
:100A20005101C1118EC080E40E941E0480935101C7
:100A3000811112C083E10E94480480935101811109
:100A40000BC081E40E941E0480935101811104C0F7
:100A50000E945904C82FC0950E944004D7018C9170
:100A60008C1719F0CC93D09300010E946A040F5F99
:100A70001F4FBFEFEB1AFB0A0E30110509F0A6CF8E
:100A800080910001882351F08150809300018823D8
:100A900009F459C0E5E0EA95F1F700000E94170853
:100AA00081E0DF91CF911F910F91FF90EF90DF9048
:100AB000CF90BF90AF9008950A30B1F038F408306D
:100AC00069F0093071F0209A2898A3CF0C3091F08A
:100AD00070F00D30C1F73E9A46989BCF219A299825
:100AE00098CF229A2A9895CF239A2B9892CF529AF0
:100AF0005B988FCF539AFCCFCFB1C095C170799BD3
:100B000018C080E0C82B7C9B16C080E0C82B7D9B62
:100B100014C080E0C82B7E9B12C080E0C82B8FB130
:100B20008095881F8827881F8295880F807EC82B14
:100B300095CF82E0E7CF84E0E9CF88E0EBCF80E19A
:100B4000EDCFC0E08BCFEBE3F2E0D6018D916D01EC
:100B50008193BBE3CB16B2E0DB06B9F79FCFE82F5A
:100B6000F0E0E55CFD4F808108950895611108C0B3
:100B7000FC018281882321F089EC90E00E94EA0741
:100B800080E090E00895FB018130910579F038F024
:100B90008230910599F00397C1F081E00895828138
:100BA0008823E1F30E94351F80E008958281882325
:100BB000A9F38CEA90E00E94EA07F6CF82818823AD
:100BC00069F381E00E94810EEFCF8281882331F3A7
:100BD0000E94FF0E81E00E94810E40E860E080E804
:100BE0000E94460DE1CF6091D2027091D3028091B4
:100BF000D4029091D5020E94E61E56985E982598E0
:100C00002D9826982E9827982F9890E0FC013197E0
:100C1000E730F105B8F4E15FF94F0C94082D1606A2
:100C20001B06200619061E0625062306259A2D9A60
:100C30000895259A2D9A269A2E9A0895259A2D9AE6
:100C4000279A2F9A0895259A2D9A269A2E9AF8CFA8
:100C50000F931F93CF93DF938C01EB019A9581152E
:100C60009F41B8F410FF03C080EEFB01099511FF0E
:100C700003C081EEFE01099512FF03C082EEFE0162
:100C8000099513FF03C083EEFE010995011510417C
:100C900028F4DF91CF911F910F91089584EEFE010A
:100CA000099585EEFE01099586EEFE01099587EE10
:100CB000FE01DF91CF911F910F910994CF93C82F1F
:100CC0006EE674E10E9428068C2FCF910C946E146E
:100CD000CF93DF93EC010E94551565E575E1CE01D8
:100CE000DF91CF910C94280681E008950C94C30500
:100CF0000E9444182FEF84E39CE0215080409040F4
:100D0000E1F700C000000C9446200F931F93CF938F
:100D1000DF938C01FC01C081D181CE010E94701D46
:100D2000BE010E942108EC01B8010E9476068823CA
:100D300091F0B801CE010E942612882361F0B8011B
:100D4000CE010E94320A882331F0B801CE010E9400
:100D5000BF0B8111DDC080E0DF91CF911F910F911A
:100D60000895F80182818823B1F30E947806F3CFB9
:100D7000F8018281882379F38091FF02816080935A
:100D8000FF02E9CFF8018281882329F30E94170F1F
:100D9000E2CFF80182818823F1F20E94F10DDBCFCE
:100DA0008823C9F20E94090ED6CF8823A1F20E949F
:100DB000280ED1CFF8018281882369F20E944C0E5F
:100DC000CACFF8018281882331F20E94670EC3CF17
:100DD000F8018281882309F4B8C00E94561F81114E
:100DE00002C00E94351F0E94691F90E09093780313
:100DF00080937703FE01E350F047E231F105C0F440
:100E0000EA5FF84F809177030C94082D240726079A
:100E1000310728072A072C072E0730073307350725
:100E20003707420739073B073D073F07410744079C
:100E300080917703816080937703809177030E948C
:100E40006D1F0E94441887CF8260F5CF8460F3CF76
:100E50008061F1CF8062EFCF8064EDCF8068EBCF0F
:100E600084608860E8CF8E7FE6CF8D7FE4CF8B7F74
:100E7000E2CF8F7EE0CF8F7DDECF8F7BDCCF8F7791
:100E8000DACF8B7F877FD7CF87FB992790F921E037
:100E9000922790FB87F9CFCFF8018281882361F0F8
:100EA00010924B020E94EB1F90934A0280934902DA
:100EB00082E00E94A4154FCF80914B0281110FC098
:100EC0008091490290914A020E94F71F883C910547
:100ED00030F486E20E946E1486E20E94551582E08C
:100EE0000E94AB1538CF80914C0281110FC08091C8
:100EF000490290914A020E94F71F883C910530F404
:100F000087E20E946E1487E20E94551580E2E8CFC6
:100F1000C633F0E7DF0709F43CCF70F5C53190E741
:100F2000D907D0F4C230E0E7DE0708F051CFC11591
:100F3000F0E7DF0709F415CFC130D04709F418CF27
:100F400081E080934B0280934C02C801DF91CF91E6
:100F50001F910F910C947406C43390E7D90709F4DC
:100F600011CFC533D04761F7F8018281882309F496
:100F7000F2CE0E94F50EEFCECA33F0E7DF0709F498
:100F800019CF78F4F8018281C833F0E7DF0709F45C
:100F90000CCF08F405CF882309F4DDCE0E943A0E69
:100FA000DACECC33E0E7DE0709F476CF08F409CFD8
:100FB000CD33D04729F6F8018281882309F493CFF5
:100FC00010924C020E94EB1F90934A0280934902B8
:100FD00080E26FCF0F931F93CF938C01F801249180
:100FE0002223F9F030E0F901EE51FD4FC4912E5962
:100FF0003C4FF9012491222379F081EE0E946E1476
:101000008C2F0E946E148C2F0E94551581EE0E9429
:1010100055150F5F1F4FE2CF8C2F0E946E148C2F3F
:10102000F6CFCF911F910F9108950C94D90A0E9489
:10103000C1120C94950408950C941B080C941C0880
:101040000895972F70E026E0929F600D711D112486
:10105000FB0194E5899FE00DF11D1124EE0FFF1FA8
:10106000E651FF4F859194910895FC01EE0FFF1F0B
:10107000EA51FF4F8591949108950E9421080E94A2
:10108000B009811520E4920708F08DC0811540E376
:10109000940708F0E7C0803E910508F071C0803CDD
:1010A000910508F0CBC0883A910580F4853A910506
:1010B00008F0C9C08130910509F46EC020F0843079
:1010C000910508F069C080E090E008958D3B91059E
:1010D000D0F7883A910509F404C1893A910509F4D9
:1010E00003C18A3A910509F402C18B3A910509F4CA
:1010F00001C18C3A910509F400C18B3B910509F4BB
:10110000FFC08C3B910509F4FEC08D3A910509F4AE
:10111000FDC0803B910509F4FCC08E3A910509F4AD
:10112000FBC08F3A910509F4FAC0813B910509F49F
:10113000F9C0823B910509F4F8C0833B910509F49D
:10114000F7C0843B910509F4F6C0853B910509F48D
:10115000F5C0863B910509F4F4C0873B910509F47D
:10116000F3C0883B910509F4F2C0893B910509F46D
:10117000F1C08A3B910509F4F0C080E094E4089541
:101180008F3F910509F048F4803F910508F066C053
:10119000883E910508F097CF0895811520E29207C7
:1011A00008F05EC00895811543E5940760F5811548
:1011B00022E5920708F061C0811541E5940708F027
:1011C00057C0811520E5920708F44FC09C0154E0F8
:1011D000369527955A95E1F7922F9370482F4370D3
:1011E00021E030E002C0220F331F4A95E2F73C684D
:1011F000392B86958695837040E2849FC001112427
:10120000822B932B0895811545E5940750F48115A1
:1012100024E5920708F445C0982F8827846F906AC8
:101220000895811546E5940708F44FC09C01305697
:101230002115304108F047CF9F704BC0805C910969
:101240000E9435080895853A910509F444C0863A0C
:10125000910509F043C082E890E4089590650895EF
:101260009F70EECF9927906C08959F70906A0895B3
:10127000982F8827816F906A0895AC014370552795
:1012800021E030E002C0220F331F4A95E2F7869535
:10129000869540E2849FC0011124822B932B9C6889
:1012A0000895AC014370552721E030E002C0220FC1
:1012B000331F4A95E2F78695869540E2849FC001E8
:1012C0001124822B932B9A680895982F88278827BA
:1012D0009F719062089581E890E4089583E890E416
:1012E000089582EE94E4089589EE94E408958AEED8
:1012F00094E4089585EB94E4089586EB94E40895CE
:1013000083EB94E4089584EB94E4089587EB94E4EC
:1013100008958CEC94E408958DEC94E4089583E8AA
:1013200095E408958AE895E4089582E995E408959E
:1013300084E995E4089581E296E4089583E296E4D1
:10134000089584E296E4089585E296E4089586E29D
:1013500096E4089587E296E408958AE296E41CCF25
:101360008238910549F1B0F48133910509F45AC0EE
:1013700048F48932910509F450C08A32910509F484
:1013800056C008958533910509F442C0893391050B
:1013900099F00895833E910521F138F4803E91053E
:1013A00081F0823E9105A1F00895863E910501F1FC
:1013B000873E910531F10895209177032370E1F57F
:1013C00008952091770320FF12C089E390E00895EB
:1013D0002091770322FF0BC024FF31C080E090E012
:1013E00008952091770322FD2DC024FDF7CF0895A5
:1013F0002091770323FFFBCF24FDF0CF87EE90E011
:1014000008952091770323FFF0CF86EE90E00895B2
:101410002091770325FD19C008952091770325FDBC
:1014200017C008952091770326FD15C008952091D7
:10143000770326FD13C0089580EE90E0089583EEB3
:1014400090E0089582EE90E0089589E290E008959A
:1014500085E390E008958AE290E0089581E390E0CA
:10146000C6CF08950F931F93CF938C01FB01828108
:10147000811106C0C1E08C2FCF911F910F9108956B
:10148000C0915A02C11125C00531104799F70E9439
:10149000310A81E080935A020E94EB1F9093590217
:1014A0008093580210924D0210924F0210924E02F9
:1014B0001092510210925002109253021092520256
:1014C0001092550210925402109257021092560236
:1014D000D2CF80915802909159020E94F71F883C08
:1014E000910540F680914D02E82FF0E0EE0FFF1FCE
:1014F000E25BFD4F118300838F5F80934D02C0E05C
:10150000BACF56985E9825982D9826982E982798A9
:101510002F988FEF90E090938900809388009093AC
:101520008B0080938A0090938D0080938C00259A85
:101530002D9A2FEF80E792E0215080409040E1F714
:1015400000C00000269A2E9A2FEF80E792E02150EB
:1015500080409040E1F700C00000279A2F9A2FEFBB
:1015600080E792E0215080409040E1F700C0000009
:1015700025982D982FEF80E792E0215080409040F1
:10158000E1F700C0000026982E982FEF80E792E048
:10159000215080409040E1F700C0000027982F982C
:1015A00056985E9825982D9826982E9827982F98CB
:1015B000089589EA8093800089E0809381002498CF
:1015C0002C983F988AB18F7C8AB96E98479A8BB1D4
:1015D00080638BB9769A0E94810A0C949304CF930E
:1015E00080E280935101CFB7F89480915B02811122
:1015F0000EC00E94180481E080935B022FEF83ED00
:1016000090E3215080409040E1F700C0000080E46A
:101610000E941E048093510181112EC00E94480433
:1016200080935101811128C00E9448048093510188
:10163000811122C08FE30E944804809351018111DF
:101640001BC00E94400480E40E941E04809351014C
:10165000811112C08CE00E944804809351018111D5
:101660000BC00E94480480935101811105C08FE393
:101670000E944804809351010E944004CFBF809192
:101680005101CF910895882339F090E08A3010F409
:101690004D9608950697089587E290E00895809109
:1016A0005C02813081F058F0823001F1843031F1F8
:1016B0008FE39CE90197F1F700C00000089582EEE6
:1016C0000E946E14F5CF80EE0E946E1481EE0E948F
:1016D0006E1488E10E946E1488E10E94551581EE17
:1016E0000E94551580EE0E945515E2CF82EE0E94B1
:1016F0006E1487E50E946E1487E5F5CF86EE0E9492
:101700006E1486EE0E94551588E10E946E1488E1E1
:10171000EACF80915C02813031F010F0823041F4E8
:1017200082EE0C9455158CE20E946E148CE2F9CF77
:101730000895EF92FF921F93CF93DF937C01CCE04B
:10174000D0E0C7010C2E02C0969587950A94E2F767
:10175000182F1F70812F0E94430B0E946E14812F3F
:101760000E94430B0E9455152497CC3F8FEFD8075A
:1017700041F7DF91CF911F91FF90EF900895CF93A4
:10178000DF93EC01C13080E8D80760F0FB01828173
:10179000882341F00E944F0BCE019F770E94990B46
:1017A0000E94890B81E0DF91CF9108958823B9F0E1
:1017B0005198599A5098589A95E09A95F1F70000E7
:1017C000509A589895E09A95F1F70000882311F007
:1017D000519A599885E08A95F1F700000895519A39
:1017E0005998E8CF8BB18C7F8BB95098589A519803
:1017F000599A85E08A95F1F7000008958AB18C7FA7
:101800008AB985E08A95F1F70000519A599885E0E8
:101810008A95F1F70000509A589885E08A95F1F77B
:10182000000008955098589A85E08A95F1F70000D5
:101830005198599A85E08A95F1F700000895CF9361
:10184000DF93D82FC8E08D2F80780E94D60BDD0F54
:10185000C150C9F780E00E94D60B85E08A95F1F768
:10186000000085E08A95F1F7000080E0DF91CF91DC
:1018700008953BB1242F209523233BB1432B3FB741
:10188000F894FC01680F791FE617F70711F43FBFC2
:101890000895819198E04BB9000000C087FF2BB9F3
:1018A000880F000000C000C000C02BB900C09A958E
:1018B00091F7EACFAF92BF92CF92DF92EF92FF9271
:1018C0000F931F93CF93DF938C01EB01CFB6D09092
:1018D000BC00F8948091BC008B7F8093BC000E9478
:1018E000F20B0E94FE0B84E80E941F0CCC0FDD1F40
:1018F000CC0FDD1F78015801AC0EBD1EEA14FB04AD
:10190000A9F40E94120CCFBED092BC00579A40E8B6
:10191000BE01C801DF91CF911F910F91FF90EF9011
:10192000DF90CF90BF90AF900C94390CF70181916C
:101930007F010E941F0CE2CFCF92DF92EF92FF92C5
:101940000F931F93CF93DF93E901662309F469C0D6
:10195000E42EF12CEFEFF0E0E61BF109EE9D8001A3
:10196000EF9D100DFE9D100D1124212FE12FFF275B
:10197000EE1AFF0A5CE3C52ED12CB6010E94E02CC2
:10198000FB01BC01E69EC001E79E900DF69E900D06
:101990001124B6010E94E02CE230F105A1F140F4DF
:1019A000309779F0319759F180E020E040E00CC0A9
:1019B000E430F10591F168F13597B1F7842F861B7A
:1019C00003C0812F262F210FE42FF0E0E151FB4FC0
:1019D0004491E22FF0E0E151FB4F9491E82FF0E0C9
:1019E000E151FB4FE49149839883EA83DF91CF91E2
:1019F0001F910F91FF90EF90DF90CF900895812F6E
:101A0000242F461BE1CF862F810FE42F412F2E2F4D
:101A1000DBCFE42FE61B842FF9CF842F462F410F15
:101A2000D3CF842F242FD0CF88E090E00C94162DB4
:101A3000AB01BC0188E090E00C94342DEFE2F3E0C0
:101A400083E08083109230038FEF828383836091E1
:101A50002F037091300380913103909132030C94E5
:101A6000180D80912F0380FF06C06FE070E087E3C0
:101A700093E00C945A0CE7E3F3E011821082128297
:101A8000349683E0E337F807C1F7EFCFE7E3F3E0FD
:101A9000818360834283349693E0E337F907C1F78B
:101AA0000C94310DEF92FF920F931F93CF93DF931E
:101AB00000D000D0CDB7DEB7182FE92EF62E042FB8
:101AC00080912F0390913003A0913103B0913203A4
:101AD0008093330390933403A0933503B09336037C
:101AE00080912F0380FF1FC09E012F5F3F4F812FEA
:101AF0009E2D0E949C0C8091330310FB87F98093EC
:101B000033031695809134038078812BE0FA87F9AE
:101B100080933403F0923503009336034B8169813F
:101B20008A810E94460D0F900F900F900F90DF91C9
:101B3000CF911F910F91FF90EF9008950F931F93F6
:101B4000CF93DF93EC01062F142F90912F0390FF7A
:101B500043C0892F8E77823021F5CE010E94520D2D
:101B600080912F03C0FB87F980932F03C695809146
:101B700030038078C82BD0FBC7F9C09330030093A3
:101B800031031093320360912F03709130038091E1
:101B9000310390913203DF91CF911F910F910C94FB
:101BA000180D892F86958F732EE3280F2F732430FD
:101BB00018F410913203D4CF865C8F73893080F68D
:101BC000991F9927991FD0913003CD2FCC0FC92B86
:101BD000D7FBDD27D0F9C4CFDF91CF911F910F91B3
:101BE0000895EFE2F3E02081221F2227221F309187
:101BF0003003432F440F842F822B37FB992790F912
:101C00000C9668E671E00E94F42C438162810C948A
:101C10009E0D20912F03221F2227221F3091300377
:101C2000432F440F842F822B37FB992790F98C3058
:101C3000910544F4845A9E4F4091320360913103E0
:101C40000C949E0D0C9768E671E00E94F42CF4CF82
:101C5000EFE2F3E08081881F8827881F909130038E
:101C6000292F220F97FB992790F943816FEF822B41
:101C70000C949E0DEFE2F3E08081881F8827881F77
:101C800090913003292F220F97FB992790F94381D8
:101C900060E0822B0C949E0D40913203842F90E0E3
:101CA000843F910594F4445F80912F03881F882717
:101CB000881F90913003292F220F97FB992790F9C5
:101CC00060913103822B0C949E0D4FEFEDCF40912C
:101CD0003203842F90E00C9794F04C5080912F03A6
:101CE000881F8827881F90913003292F220F97FB88
:101CF000992790F960913103822B0C949E0D40E05E
:101D0000EDCF90912F0390FF3BC09178811126C0B9
:101D1000926090932F0360912F0370913003809114
:101D20003103909132030E94180D80912F03982F58
:101D30009E779230D9F410927202881F8827881FEC
:101D400090913003292F220F97FB992790F940910A
:101D5000320360913103822B0C949E0D893110F077
:101D60009063D7CF8F73880F982BD3CF982F9695EA
:101D7000925C9F73963108F791E090937202DDCFE9
:101D800008958091FF0281608093FF0281E080933B
:101D900073020E94561F811104C00E94351F0E94C9
:101DA0001E0D0E94140D60932F03709330038093D7
:101DB0003103909332036E7761F40E941E0D0E94EE
:101DC000140D60932F03709330038093310390932D
:101DD000320381E08093720280912F0380FF04C060
:101DE00086958F730C94810E089580912F038695AC
:101DF0008F738F5F893108F081E00C94810ECF934F
:101E0000DF93CFE2D3E088818160888360912F03E4
:101E10007091300380913103909132030E94180D2C
:101E2000888186958F73DF91CF910C94810E80917C
:101E30002F03982F909590FB80F980932F0360914A
:101E40002F037091300380913103909132030E94EF
:101E5000180D80912F0380FF04C086958F730C941A
:101E6000810E109272022FEF80E792E021508040A5
:101E70009040E1F700C000000C94310DCF93C82FC3
:101E800080917002909171020E94F71FEC2FF0E098
:101E9000E551FC4FE491F0E08E179F0718F10E9486
:101EA000EB1F9093710280937002E0916F02F0E05B
:101EB000E151FC4F449180912F03881F8827881F90
:101EC00090913003292F220F97FB992790F9609169
:101ED0003103822B0E94520D80916F0290E0019697
:101EE00080936F02CF910895CF93C82F80916D0298
:101EF00090916E020E94F71FEC2FF0E0E851FC4F2A
:101F0000E491F0E08E179F07E8F00E94EB1F90939A
:101F10006E0280936D024091320360913103809193
:101F20006B0290916C020E94520D80916B02909115
:101F30006C02019668E671E00E94E02C90936C02BE
:101F400080936B02CF910895CF92DF92FF920F930F
:101F50001F93CF93DF93F82E8091690290916A02CC
:101F60000E94F71FEF2DE695F0E0E851FC4FE49159
:101F7000F0E08E179F07A8F10E94EB1F90936A0272
:101F80008093690207E313E0C0E0D0E088E6C82E42
:101F9000DD24D39480916702909168028C0F9D1F7D
:101FA000B6010E94E02C9801409132036091310308
:101FB0000E949C0C68960C5F1F4FC83681E0D807C2
:101FC00049F70E94310D8091670290916802F0FEFE
:101FD00010C00196BE010E94E02C9093680280938D
:101FE0006702DF91CF911F910F91FF90DF90CF900B
:101FF00008950197F2CFAF92BF92CF92DF92EF9206
:10200000FF920F931F93CF93DF93C82F80FF71C070
:10201000FF24FA9480916502909166020E94F71F56
:10202000C695EC2FF0E0EB51FC4FE491F0E08E17F9
:102030009F0708F453C00E94EB1F909366028093A1
:102040006502C7E3D3E000E010E097E0C92ED12C91
:10205000198218821A8287E0A82EB12CE12C809177
:1020600064028E0D87FD815F082E000C990B081706
:102070001907E9F4209132032A9DC0012B9D900D90
:102080001124B6010E94F42C462F80912F03881F43
:102090008827881F90913003592F550F97FB992758
:1020A00090F99E0160913103852B0E949C0CEF0CEE
:1020B00081E0A81AB10899F60F5F1F4F24960F30E0
:1020C000110531F60E94310D8091640291E0F91200
:1020D00015C0811111C08EE080936402DF91CF9111
:1020E0001F910F91FF90EF90DF90CF90BF90AF9036
:1020F0000895FF24F3948ECF8150EECF90E00196A7
:10210000B8010E94F42CE8CFBF92CF92DF92EF92F9
:10211000FF920F931F93CF93DF93CDB7DEB7EC976A
:102120000FB6F894DEBF0FBECDBF182F80916202AC
:10213000909163020E94F71FE12FF0E0EE51FC4FF7
:10214000E491F0E08E179F0708F47AC00E94EB1F1D
:1021500090936302809362028E010F5F1F4FE12C08
:10216000F12C6801D80111961C9211971C921296BD
:102170001C92B12C9091520180916102B99E800D08
:1021800011248F300CF08EE087FD80E0082E000CCB
:10219000990BE816F906A1F480912F03881F882770
:1021A000881F90913003592F550F97FB992790F96D
:1021B00098014091320360913103852B0E949C0C61
:1021C000B394B7E0BB12D6CFEFEFEE1AFE0A0C5F66
:1021D0001F4FFFE0EF16F10429F627E333E009E093
:1021E00010E09FE0E92EF12CC801B7010E94F42C09
:1021F000FC01EE0FFF1FEE0FFF1FEC0DFD1D818197
:10220000D90111968C93119780818C9382811296BB
:102210008C930F5F1F4F2C5F3F4F0831110521F743
:102220000E94310D90915201809161029130E1F450
:102230008A3FB4F489EF809361028FEF809352015B
:10224000EC960FB6F894DEBF0FBECDBFDF91CF91F5
:102250001F910F91FF90EF90DF90CF90BF90089566
:10226000815080936102ECCF86312CF085E1809320
:10227000610281E0E3CF8F5FF4CFDF92EF92FF92B4
:102280000F931F93CF93DF9380915F029091600231
:102290000E94F71F883E9340F0F10E94EB1F90933D
:1022A000600280935F0280915D0290915E020196D0
:1022B0008170992790935E0280935D022FE0289FA2
:1022C0008001299F100D1124C7E3D3E083E7E82E96
:1022D00083E0F82E90E5D92EC801817099279E01E0
:1022E0004091320360913103FC01DE9EC001DF9E0C
:1022F000900D11240E949C0C015F1F4F2496EC1638
:10230000FD0651F7DF91CF911F910F91FF90EF9054
:10231000DF900C94310DDF91CF911F910F91FF90C1
:10232000EF90DF90089580917202882371F180917F
:102330002F0386958F739EE3980F9F73943018F444
:1023400082500C943E0F9AE3980F9F73933018F4C9
:1023500086500C94740F97E3980F9F73963018F47F
:1023600089500C94A40F91E3980F9F73963018F442
:102370008F500C94FB0F9BE2980F9F73933018F4CF
:1023800085510C9484100C943D110895DC011D9628
:102390008C911D97811111C081E01D968C931D9722
:1023A0001296ED91FC911397CD010696309729F086
:1023B0001E966D917C911F9709940895FC01808170
:1023C000813029F4FB01808191810C945E0682307A
:1023D00021F4FB0182819381F8CF0895FC01808173
:1023E000813029F4FB01808191810C946806823050
:1023F00021F4FB0182819381F8CF0895CF93DF937D
:10240000EC018E8181111FC089819A81915724E04E
:10241000880F991F2A95E1F7DC01AF5FBE4F149634
:10242000ED91FC911597895F9E4F309729F01E968C
:102430006D917C911F97099518821D821F821092C1
:10244000750210927402DF91CF910895EF92FF927E
:102450000F931F93CF93DF938C018091740290911F
:102460007502009769F00817190751F024E0880FEA
:10247000991F2A95E1F7FC01EF5FFE4081E0838719
:10248000780181E7F81AFB014281FFEFEF16F104B2
:1024900011F008F053C020915301022E000C330BB1
:1024A0002E153F0514F4E092530194E0EE0CFF1C4E
:1024B0009A95E1F7E701CF5FDE4F4C87FB01828100
:1024C0008823A1F118870F838E818F5F8E830E94EE
:1024D000EB1F9A878987E881F981C701895F9E4F41
:1024E000309719F06E857F850995809174029091DF
:1024F00075020097B9F008171907A1F09157EC0180
:1025000084E0CC0FDD1F8A95E1F7CE018F5F9E4FEF
:1025100021E0FC0123870E94C611CE01895F9E4FF6
:102520000E94FE11109375020093740281E0DF9106
:10253000CF911F910F91FF90EF9008954423B1F335
:10254000809153018F3F91F3C7E0D1E000E010E0AC
:10255000FF24F39480915301082E000C990B8017EF
:10256000910724F38881882341F0FD82CE010697EC
:102570000E94C611CE010E94FE110F5F1F4F609690
:10258000E9CF0F931F93CF93DF93809153018F3F38
:1025900061F0C7E0D1E000E010E080915301082E27
:1025A000000C990B801791072CF4DF91CF911F91AC
:1025B0000F9108958881882371F08B819C810E94FE
:1025C000F71F893C910538F0CE0106970E94C6118D
:1025D000CE010E94FE110F5F1F4F6096DECF9093D9
:1025E0007B0280937A020895E0917A02F0917B0257
:1025F000309721F00190F081E02D099480E008955A
:10260000E0917A02F0917B02309721F00280F38111
:10261000E02D09940895E0917A02F0917B023097C1
:1026200021F00480F581E02D09940895209178022D
:10263000309179022817390771F0909379028093CD
:102640007802E0917A02F0917B02309721F00680C7
:10265000F781E02D09940895209176023091770258
:102660002817390771F09093770280937602E091F2
:102670007A02F0917B02309721F00084F185E02D01
:102680000994089508950C9442130E94E21F0E9439
:1026900097040E9468200C94C10EBF92CF92DF92E3
:1026A000EF92FF920F931F93CF93DF93CDB7DEB7D7
:1026B0002A970FB6F894DEBF0FBECDBF0E94BE04AE
:1026C0008DE7C82E82E0D82E00E010E0B02E802FDB
:1026D0000E94AF05E82EF601F1906F018F1116C030
:1026E0000F5F1F4F0E30110589F78FEF89838A83A3
:1026F0001B820E94EB1F8160782F9D838C83498110
:102700005A816B818D810E942C1438C08091FF0208
:1027100081FD0E94B50580E090E0FE242F2D30E081
:10272000482FB901082E02C0759567950A94E2F703
:1027300060FF41C08E83BF8281E090E06C0102C0E7
:10274000CC0CDD1C4A95E2F72E2D30E02C213D21EA
:10275000232B09F480E088870E94EB1F8160782F8B
:102760009A8789874E815F8168858A850E942C14AB
:10277000F801E358FD4F80818C2580830E94F7216A
:102780000E94F41290917C028917D9F00E94F412F1
:1027900080937C022A960FB6F894DEBF0FBECDBFA1
:1027A000DF91CF911F910F91FF90EF90DF90CF902D
:1027B000BF900C941E0801968630910509F0B0CFA9
:1027C0008FCF2A960FB6F894DEBF0FBECDBFDF9134
:1027D000CF911F910F91FF90EF90DF90CF90BF901E
:1027E0000895DC0111962C9111978C91682F70E05F
:1027F00041E050E001C0440F8A95EAF712968C91AF
:10280000129730E08823D9F0809199028823E9F06B
:1028100086E0829FF001839FF00D1124E60FF71FE1
:10282000EE0FFF1FEA59FE4F808191818D939C939B
:10283000F901E557FD4F8081482B40830895F90148
:10284000E557FD4F9081942319F7F901E557FD4FA6
:10285000409580814823F1CFCF93DF93CDB7DEB78A
:102860002B970FB6F894DEBF0FBECDBF942F4F83CA
:10287000252F588769877A878B874A855B85452B03
:1028800039F02F3F19F481E09F3F19F080E001C03B
:1028900081E080FD04C0CE0107960E94F113DE01A5
:1028A000119686E0FD0111928A95E9F785E0FE0117
:1028B000379601900D928A95E1F749815A816B8193
:1028C0007C818D819E810E940D1B2B960FB6F89402
:1028D000DEBF0FBECDBFDF91CF910895CF93C82F3C
:1028E000882309F4E0C0823879F40E94F41281FD53
:1028F000DAC089E30E94F21D0E94B71E89E30E949C
:102900002E1ECF910C94B71E833859F40E94F412F6
:1029100080FDC9C083E50E94F21D0E94B71E83E5B9
:10292000EECF843859F40E94F41282FDBCC087E4D3
:102930000E94F21D0E94B71E87E4E1CF8CEF8C0F3E
:10294000813A48F48C2F0E9432248111ACC08C2F24
:102950000E94F21DD6CF80E28C0F883048F4C770F9
:1029600081E001C0880FCA95EAF70E946E1EC9CFA8
:102970008BE58C0F833078F4C53A39F0C63A41F0D4
:1029800083E890E0CF910C94161381E890E0FACFA1
:1029900082E890E0F7CF88E58C0F853108F083C09E
:1029A000C83A09F441C0C93A09F441C0CA3A09F425
:1029B00041C0CB3A09F441C0CC3A09F441C0CB3B09
:1029C00009F441C0CC3B09F441C0CD3A09F441C0FF
:1029D000C03B09F441C0CE3A09F441C0CF3A09F4F2
:1029E00041C0C13B09F441C0C23B09F441C0C33BF3
:1029F00009F441C0C43B09F441C0C53B09F441C0DE
:102A0000C63B09F441C0C73B09F441C0C83B09F4C7
:102A100041C0C93B09F441C0CA3B09F441C080E050
:102A200090E0CF910C942C1382EE90E0FACF89EED7
:102A300090E0F7CF8AEE90E0F4CF85EB90E0F1CF15
:102A400086EB90E0EECF83EB90E0EBCF84EB90E071
:102A5000E8CF87EB90E0E5CF8CEC90E0E2CF8DEC17
:102A600090E0DFCF83E891E0DCCF8AE891E0D9CF36
:102A700082E991E0D6CF84E991E0D3CF81E292E080
:102A8000D0CF83E292E0CDCF84E292E0CACF85E25C
:102A900092E0C7CF86E292E0C4CF87E292E0C1CF56
:102AA0008AE292E0BECFCF910895882309F44BC00B
:102AB000823871F40E94F41281FF45C089E30E94BC
:102AC000F21D0E94B71E89E30E942E1E0C94B71EB1
:102AD000833859F40E94F41280FF35C083E50E94C8
:102AE000F21D0E94B71E83E5EFCF843859F40E948F
:102AF000F41282FF28C087E40E94F21D0E94B71ED4
:102B000087E4E2CF9CEF980F913AF0F290E2980FB1
:102B1000983050F4877091E001C0990F8A95EAF7D8
:102B2000892F0E94741ED2CF9BE5980F933020F41A
:102B300080E090E00C941613885A853120F480E0F0
:102B400090E00C942C130895882321F00E946E1EAF
:102B50000C94B71E0895882321F00E94741E0C94D3
:102B6000B71E08958F929F92AF92BF92DF92EF921D
:102B7000FF920F931F93CF93DF937C01D62FC72F24
:102B8000FC01058102950F70128111110E948D1EAA
:102B90000E94EB1DD82E882371F0112331F180E2C1
:102BA0008D0F883010F182E00E94D41D0E94EB1D31
:102BB00091E0D82ED926EC2FE295EF708E2F90E081
:102BC000FC01EB51FA4E0C94082DF715F715481639
:102BD000481680169E16BE172516A91625164417E8
:102BE0004417B51725162516DE17D12CE4CF8C2FE8
:102BF000807FCF70882311F0C295C07F1123A9F088
:102C0000CC2359F080E28D0F883010F0D11109C02B
:102C10008C2F0E946E1E0E94B71E8D2F0E946E1474
:102C200014C08C2F0E947F1EF6CF8D2F0E94551549
:102C3000CC2359F080E28D0F883010F0D11124C0E0
:102C40008C2F0E94741E0E94B71EDD2009F4CFC194
:102C50000E94C71D80FDCBC1F70112820E94C11DD9
:102C60000E94B41CC7010E9403180E94C11DDF917D
:102C7000CF911F910F91FF90EF90DF90BF90AF9099
:102C80009F908F900C94D51C8C2F0E94851EDBCFBB
:102C90008C2F807FCF70803211F0C295C07FDD23F2
:102CA00039F0D130F1F0112329F1002329F0B5CF0B
:102CB000112361F0011104C08C2F0E94A415C5CF0F
:102CC0008C2F0130D1F70E94A11EBFCF011106C089
:102CD0000E94A41E8C2F0E94AB15B7CF0130C1F704
:102CE000B4CF112321F0023008F0AFCFE5CF0111AE
:102CF000ACCFF0CF002371F38D2F0E945515A5CFD7
:102D00008C2F86958695837059F0813009F09DCF80
:102D1000112389F08D2F9C2F93700E942C1395CF37
:102D2000112331F08D2F9C2F93700E9416138DCF9D
:102D300080E090E0FACF80E090E0EFCF8D2F11237C
:102D400029F00E9400210E94EC217FCF0E9468217F
:102D5000FACF8C2F837009F048C0111176CF2D2F38
:102D6000229526952770220F220F6D2F6F70862EC9
:102D7000912CA12CB12C022E04C0880C991CAA1CE9
:102D8000BB1C0A94D2F7D4FF1EC06FE070E080E055
:102D900090E004C0660F771F881F991F2A95D2F70D
:102DA0006095709580959095C695C695C370C23014
:102DB00071F0A0F4682979298A299B29C13091F002
:102DC0000E945D1C42CF60E070E0CB01EDCF68292E
:102DD00079298A299B290E94791C37CF0E945D1C82
:102DE000C501B4010E94411C30CF1123C9F18C2FC1
:102DF0008170882309F429CF2D2F229526952770DD
:102E0000220F220F6D2F6F70862E912CA12CB12CCA
:102E1000022E04C0880C991CAA1CBB1C0A94D2F771
:102E2000D4FF20C06FE070E080E090E004C0660F47
:102E3000771F881F991F2A95D2F760957095809506
:102E40009095C695C695C370C23081F0B0F46829DC
:102E500079298A299B29C130A1F00E94371DF5CE1E
:102E60008695C7CF60E070E0CB01EBCF6829792968
:102E70008A299B290E94531DE8CE0E94371DC50157
:102E8000B4010E941B1DE1CE8D2F90E0FC01E05E9D
:102E9000F109E531F10508F060C0EF5AF84E0C94E5
:102EA000082D661766176617661766176617661782
:102EB000661766176617661766176617661766172A
:102EC00066177317801787178E179817DF708C2F68
:102ED0008F71112321F00E94B41C8D2FEECE0E9421
:102EE000D51C8D2FF8CE112339F00111AECE8C2FC9
:102EF0008F710E94FA1CA9CE023008F0A6CEF7CF3F
:102F0000112339F08C2F8F710E94B41C9ECE112397
:102F1000C9F38C2F8F710E94D51C97CE112329F0F5
:102F20008C2F8F710E949F1C90CE0E94951C8DCE7D
:102F3000112349F0CF718C2F0E94B41C63E08C2FB9
:102F40000E94CB1D82CE81E00E94D41D023008F485
:102F50007CCE82E00E94D41D78CE112319F000238C
:102F600089F25BCE0023A9F2C7CE4C2F4F706D2F94
:102F7000C7010E94B6050E94BB1B67CED23F39F144
:102F800060F4D03F99F0D13F51F1002301F18D2F32
:102F9000112351F10E946E1411C0D43FD9F0A8F052
:102FA000D53F99F711110AC081E006C0112331F015
:102FB0008091990291E08927809399024C2F4F705C
:102FC0006D2FC7010E94200840CE81E01827109382
:102FD0009902F4CF1111F2CF10929902EFCF002392
:102FE000B1F31111EBCFE4CF0E945515E7CFDF917C
:102FF000CF911F910F91FF90EF90DF90BF90AF9016
:103000009F908F9008950F931F93CF93DF93EC01C0
:10301000988189812B813C81232B39F08F3F19F4D2
:1030200081E09F3F19F080E001C081E080FD13C086
:10303000CE010E948506882371F0688179818A819A
:103040000E94BD1D8C010E946F1D0E94361CB8019C
:10305000CE010E94B215DF91CF911F910F9108957B
:103060000E948D1E0E949E1E0E94601E0E94B71E1E
:103070000E949A220E94EC2180E090E00E941613A8
:1030800080E090E00C942C130E947C1E0C9430186D
:103090000E94B21DE92FE295EF704E2F50E0FA0129
:1030A0003297EE30F105D8F4E85AF74E0C94082D1B
:1030B000661866186F186F1871186F186F186F18E8
:1030C0006618661876186F186F187618803F19F012
:1030D00020F4803E20F481E00895843FE1F380E015
:1030E0000895803EC0F3813FD1F7F5CF93FB882749
:1030F00080F90895CF93DF9300D000D01F92CDB711
:10310000DEB70F900F900F900F900F90DF91CF913F
:103110000895CF93DF9300D000D000D0CDB7DEB7B5
:1031200026960FB6F894DEBF0FBECDBFDF91CF91CC
:1031300008951F93CF93DF93C0919A0216E0809178
:103140009B02C81304C0DF91CF911F910895D0E076
:103150001C9FF0011D9FF00D1124E456FD4F40818E
:10316000518162817381848195810E9489182196A1
:10317000C770E5CF4091CC025091CD026091CE0254
:103180007091CF028091D0029091D1020C94891855
:103190001F93CF93DF938091D10282958F70D1F4EA
:1031A0008091CE028823B1F080919A02D0919B0247
:1031B000B091CC02C091CD024091CF025091D0028B
:1031C000A1E0BF3F09F0A0E0BA016095709516E05C
:1031D0008D1304C0DF91CF911F91089541155105C2
:1031E000D9F1CF3FD9F120E090E020FD3CC0189FFD
:1031F000F001199FF00D1124E456FD4F21812C138D
:1032000032C020812B132FC0228121112CC0238199
:1032100034812417350720F1241B350B283C310558
:1032200010F52091D1022F7020612093D10226E069
:10323000289FF001299FF00D1124EF55FD4F80814B
:103240008F70806180838CEC92E00E940318DF9184
:10325000CF911F910C94991821E0C6CF2A2FC4CF8B
:10326000260F371FDBCF01968770B2CFAF92BF9288
:10327000CF92DF92EF92FF920F931F93CF93DF9342
:10328000CDB7DEB761970FB6F894DEBF0FBECDBFE6
:103290008C0185E0F801DE011D9601900D928A9562
:1032A000E1F7D8014C9111965C9111971296EC9030
:1032B0003091CC026091CD028091CF029091D002EA
:1032C000009739F06F3F19F421E03F3F19F020E0FB
:1032D00001C021E0B22FB170BB2E20FD90C1F801DA
:1032E000C380D480A090CE02AA2009F432C12091DC
:1032F000D102C816D90610F1D601A81BB90BCD0111
:10330000FF24F394883C9105F0F0F12C207F09F024
:10331000E9C07C2DD98AC88A6E2D89890E947A18C5
:103320008CEC92E00E940318ECECF2E086E0DF0106
:103330001D928A95E9F70E94BA181EC08095909553
:103340008C0D9D1DDDCF822F807F09F084C0651319
:1033500025C0341323C0FE2CE11020C02F70206143
:103360002093D1020E94BA188CEC92E00E940318BC
:103370008091D102F80185838F2D61960FB6F89464
:10338000DEBF0FBECDBFDF91CF911F910F91FF9098
:10339000EF90DF90CF90BF90AF900895CD2839F097
:1033A0005F3F19F481E04F3F19F080E001C081E0F8
:1033B00080FD24C081E08E25F82FF170FF2E80FF64
:1033C0003FC080919A0220919B0236E0821318C080
:1033D0004D875E878D859E850E94B21D292F22957F
:1033E0002F70223008F1243030F59F7009F1D80198
:1033F00015969C91907FE1F4FB2CBECF80E0DCCF52
:1034000090E0389FF001399FF00D1124E456FD4FF4
:103410006181561306C06081641303C06281E612A5
:103420000FC001968770D2CF9F7011F0882321F3CF
:10343000805E883008F3C8010E940318BF2CDCCFDF
:10344000FE2CEE2009F498CF8091D1028160809308
:10345000D102F12C91CF651314C0341312C0E110C6
:1034600010C08091D102F8018583C8010E94031821
:1034700086E0F801ACECB2E001900D928A95E1F79C
:103480005ACF4D875E878D859E850E944818882378
:1034900009F4BFC0EE2009F4BCC02091D102822FF4
:1034A00082958F7090E0029774F08091CC02909199
:1034B000CD0298878F831986DB86CA862C87CE013A
:1034C00007960E94031886E0F801ACECB2E0019088
:1034D0000D928A95E1F70E94C8180E94BA18FF243D
:1034E000F3944ACF651314C0341312C0E11010C016
:1034F0008091D102F8018583C8010E94031886E0FB
:10350000ECECF2E0DF011D928A95E9F7FA2C34CF5A
:103510004D875E878D859E850E944818882309F413
:1035200078C0EE2009F475C02091D102822F8295D7
:103530008F7090E002973CF28091CC029091CD0286
:103540009A8389831B82DD82CC822E83CE010196F1
:10355000B8CFC816D90680F0F601E81BF90BCF01E9
:10356000883C910570F0F12C7C2DD98AC88A6E2D8B
:1035700089890E947A18D8CE809590958C0D9D1DD2
:10358000EFCFFE2CEE2009F444C0651327C034139E
:1035900025C08091D10280FD18C0982F92959F7010
:1035A000292F30E02115310581F0D80115968C9333
:1035B00015972F30310509F458CF9F5F9295907F72
:1035C0008F70892B15968C9350CF86E0F801ACEC68
:1035D000B2E001900D928A95E1F7CECE4D875E87DD
:1035E0008D859E850E94481881116DCF8091D102F2
:1035F00081608093D102C8010E940318BDCEEE20E5
:1036000041F04D875E878D859E850E944818811107
:103610005ACFC8010E94031862CF1F93CF93DF9344
:10362000CDB7DEB72C970FB6F894DEBF0FBECDBF77
:103630004F83588769877A878B879C87CE01079647
:103640000E943619882349F19F8188852A853B8508
:10365000232B39F08F3F19F481E09F3F19F080E070
:1036600001C081E080FD08C04F81588569857A8559
:103670008B859C850E94891816E080919A02909112
:103680009B02891348C02C960FB6F894DEBF0FBE7C
:10369000CDBFDF91CF911F91089586E0FE0137964F
:1036A000DE01119601900D928A95E1F7FF81E88580
:1036B0006A857B856115710539F0EF3F19F481E06A
:1036C000FF3F19F080E001C081E080FDD5CF20915F
:1036D0009B0230E0C90101968770992740919A02B8
:1036E00050E084179507C9F1F983EA837D836C83E1
:1036F00096E0929FD001939FB00D1124A456BD4F28
:10370000FE01319601900D929A95E1F780939B020C
:103710000E949918B1CF819FC001112484569D4FFA
:103720000E943619882309F4AECFE0919A021E9FB9
:10373000F0011124E456FD4F408151816281738173
:10374000848195810E94891880919A0290E0019667
:103750008770992780939A0290CF0E944418109204
:103760009B0210929A02ECECF2E086E0DF011D92DF
:103770008A95E9F788CFEF92FF920F931F93CF932B
:10378000DF938C01892B81F0F12CEE24E394E80186
:103790002196F8018491843770F4843008F062C077
:1037A0008130B1F08230B1F1DF91CF911F910F9153
:1037B000FF90EF900895853709F44FC008F43FC09B
:1037C0009CE7980F903780F78F770E9455154CC073
:1037D0000E5F1F4FFE01849190E2980F983060F4C5
:1037E0008770FE2D01C0FF0F8A95EAF78F2F0E9488
:1037F000901E0E94B71E02C00E946E148F2D882357
:1038000009F4C5CFEFE9FFE03197F1F700C0000000
:103810008150F5CF0E5F1F4FFE01849190E2980F0B
:10382000983050F48770FE2D01C0FF0F8A95EAF79B
:103830008F2F0E94961EDDCF0E945515DFCF0E5FA1
:103840001F4FFE01C491CC23C9F28FE99FE001977D
:10385000F1F700C00000C150F6CF0E5F1F4FFE0110
:10386000F490CCCF0E946E148E01C8CF089560935F
:10387000D6027093D7028093D8029093D9020C9409
:1038800030180F931F930091D6021091D702209108
:10389000D8023091D902DC01CB01802B912BA22BD5
:1038A000B32B8093D6029093D702A093D802B09303
:1038B000D9021F910F910C9430180F931F93009110
:1038C000D6021091D7022091D8023091D902DC01A2
:1038D000CB0180239123A223B3238093D60290931C
:1038E000D702A093D802B093D9021F910F910C94E4
:1038F00030180F931F930091D6021091D702209198
:10390000D8023091D902DC01CB0180279127A22770
:10391000B3278093D6029093D702A093D802B09396
:10392000D9021F910F910C9430181092D20210926C
:10393000D3021092D4021092D5020C94301841E0B8
:1039400050E060E070E004C0440F551F661F771F11
:103950008A95D2F74093D2025093D3026093D40257
:103960007093D5020C94301841E050E060E070E0B4
:1039700004C0440F551F661F771F8A95D2F78091A8
:10398000D2029091D302A091D402B091D502842B9F
:10399000952BA62BB72B8093D2029093D302A093A2
:1039A000D402B093D5020C94301841E050E060E0AE
:1039B00070E004C0440F551F661F771F8A95D2F729
:1039C00040955095609570958091D2029091D30268
:1039D000A091D402B091D50284239523A623B723C6
:1039E0008093D2029093D302A093D402B093D502D5
:1039F0000C94301841E050E060E070E004C0440FE7
:103A0000551F661F771F8A95D2F78091D202909139
:103A1000D302A091D402B091D50284279527A6277E
:103A2000B7278093D2029093D302A093D402B0938D
:103A3000D5020C9430180F931F930091D20210916D
:103A4000D3022091D4023091D502DC01CB01802B2E
:103A5000912BA22BB32B8093D2029093D302A093ED
:103A6000D402B093D5021F910F910C9430180F938C
:103A70001F930091D2021091D3022091D402309171
:103A8000D502DC01CB0180239123A223B3238093B1
:103A9000D2029093D302A093D402B093D5021F9187
:103AA0000F910C9430180F931F930091D202109134
:103AB000D3022091D4023091D502DC01CB018027C2
:103AC0009127A227B3278093D2029093D302A09389
:103AD000D402B093D5021F910F910C943018089521
:103AE000BF92CF92DF92EF92FF920F931F93CF93EB
:103AF000DF938C01C090D202D090D302E090D40228
:103B0000F090D5028091D6029091D702A091D80270
:103B1000B091D902C82AD92AEA2AFB2ACFE1D0E0FB
:103B2000BC2ED701C6010C2E04C0B695A79597955B
:103B300087950A94D2F780FD0EC0219788F7B12CA3
:103B40008B2DDF91CF911F910F91FF90EF90DF9020
:103B5000CF90BF900895B8018C2F0E943D08019727
:103B600061F3EECFCF93DF93EC010E94701DBE0195
:103B70000E943D08DF91CF910895CB010E94B21DB4
:103B800008958091DA0285958595859508958091AF
:103B9000DA028770089598E0899F90011124622BC2
:103BA0006093DA020C94B41C2091DA02809582238F
:103BB0008093DA02982F977069F430E0482F082E2E
:103BC000000C550B2417350729F0859585958595AB
:103BD0000C94D51C08959091DA02977081E009F455
:103BE00080E00895909165019923D9F09091770331
:103BF00097FF17C0982F9695969596959F3131F11E
:103C0000E0915401F0915501E90FF11D877021E019
:103C100030E001C0220F8A95EAF78181822B8183EF
:103C200008952091540130915501F90132969FEF8A
:103C300040E05191851751F09F3F19F4511101C097
:103C4000942F4F5F4E31A9F79F3F09F40895290F34
:103C5000311D97FD3A95F901828308959091650190
:103C60009923E9F09091770397FF19C0982F9695C3
:103C7000969596959F3119F1E0915401F091550177
:103C8000E90FF11D282F277081E090E001C0880F17
:103C90002A95EAF78095918189238183089520915F
:103CA000540130915501F9013296205E3F4F9081C9
:103CB000891301C010823196E217F307C1F7089506
:103CC00081E090E0E0915401F0915501E80FF91F77
:103CD0001082019680329105A9F708959091FE0215
:103CE000892B8093FE020895982F90958091FE0273
:103CF00089238093FE0208951092FE020895909108
:103D0000FD02892B8093FD020895982F9095809154
:103D1000FD0289238093FD0208951092FD0208950B
:103D20009091FC02892B8093FC020895982F909526
:103D30008091FC0289238093FC0208951092FC027A
:103D400008958093DB0208951092DB02089520917C
:103D5000540130915501F9013196205E3F4F80E0CA
:103D6000919191118F5FE217F307D1F70895E091D8
:103D70005401F09155018091FE028083E09154013D
:103D8000F091550180819091FD02892B8083E09113
:103D90005401F091550180819091FC02892B808320
:103DA0009091DB02992361F0E0915401F09155016B
:103DB0008081892B80830E94A71E81111092DB02D3
:103DC00080915401909155010C940013CF92DF9291
:103DD000EF92FF926C01EE24FF24C114D104E104A0
:103DE000F10409F440C0C701B60120E1C72ED82E66
:103DF000E92EFF24C114D104E104F10419F0285F75
:103E0000C701B6016B017C0154E0F694E794D794A6
:103E1000C7945A95D1F7C114D104E104F10419F003
:103E20002C5FC701B6016B017C0142E0F694E79478
:103E3000D794C7944A95D1F7C114D104E104F10491
:103E400019F02E5FC701B60196958795779567950E
:103E5000672B682B692B09F02F5F822FFF90EF9063
:103E6000DF90CF90089520E0C1CF6DEE7EEF80E02F
:103E700090E00E94402D60E082E090E00E94222DC0
:103E800060E083E090E00E94222D60E084E090E01A
:103E90000E94222D60E085E090E00E94222D40E00B
:103EA00050E0BA0188E090E00C94342D80E090E07E
:103EB0000E941C2D21E08D3E9E4F09F020E0822FB4
:103EC000089582E090E00C940E2D83E090E00C9435
:103ED0000E2D84E090E00C940E2D682F84E090E08D
:103EE0000C94222D80917D03843039F110920003CF
:103EF00020E488E190E00FB6F894A89580936000E4
:103F00000FBE2093600080E00E941E0883B7817F6F
:103F1000846083BF83B7816083BF7894889583B7BB
:103F20008E7F83BF0FB6F894A8958091600088615A
:103F300080936000109260000FBE08950895CF93A3
:103F40000E94AB040E94BE040E949E1FC0E08C2F02
:103F50000E94AF05811105C0CF5FCE30C1F7CF9170
:103F6000089581E0FCCF0E9444180E94F4120C9442
:103F70001E081F920F920FB60F9211248F939F93DA
:103F8000AF93BF9380910003811113C0809173039D
:103F900090917403A0917503B09176034196A11D91
:103FA000B11D8093730390937403A0937503B09332
:103FB0007603BF91AF919F918F910F900FBE0F909D
:103FC0001F90189582E084BD93E095BD9AEF97BD50
:103FD00080936E0008952FB7F894809173039091A9
:103FE0007403A0917503B09176032FBF0895CF920B
:103FF000DF92EF92FF920F931F932FB7F8944091A7
:1040000073035091740360917503709176032FBF11
:104010006A017B01EE24FF248C0120E030E0C01611
:10402000D106E206F30650F0481B590BCA011F9156
:104030000F91FF90EF90DF90CF900895415051097C
:10404000F3CF1F920F920FB60F9211248F939F936D
:10405000AF93BF938091730390917403A091750304
:10406000B09176030196A11DB11D809373039093C7
:104070007403A0937503B0937603BF91AF919F91A2
:104080008F910F900FBE0F901F9018950E94B1282E
:10409000F8942FEF87EA91E6215080409040E1F7B5
:1040A00000C0000087E090EBDC01809386039093D2
:1040B0008703A0938803B09389039CE088E10FB63F
:1040C000F894A895809360000FBE90936000FFCF96
:1040D0000E94561F811102C00E94351F0E94611F5D
:1040E0008093FF020E94691F90E090937803809371
:1040F00077030E94651F682F70E080E090E00C94C9
:10410000371C8091040380FF12C06091590185E043
:10411000689FB0011124759567957595679560380E
:104120007105A8F56115710581F581E0089581FF9C
:1041300009C06091590185E0689FB001112475950F
:104140006795EDCF82FF07C06091590185E0689FB8
:10415000B0011124E4CF909105039923A1F060915F
:104160005801961788F72091590185E0289F900102
:104170001124929FA001939F500D112470E0CA0159
:104180000E94F42CCCCF65E070E0862F08958FE775
:1041900008958091040380FF0CC06091570170E086
:1041A00075956795759567956115710539F581E088
:1041B000089581FF06C06091570170E0759567957D
:1041C000F3CF82FF08C06091570170E0603871053D
:1041D00058F38FE7089580910503882369F0609173
:1041E0005601861780F790915701899FC0011124CD
:1041F00070E00E94F42CEACF61E070E0862F089511
:10420000803F31F40E9481208195809308030895B6
:10421000813F19F40E948120F8CF823F31F40E943F
:1042200081208195809307030895833F19F40E94AC
:104230008120F8CF893F29F40E94C9208093090387
:1042400008958A3F21F40E94C9208195F7CF8B3FC2
:1042500031F40E94C920819580930A0308958C3F10
:1042600019F40E94C920F8CF843F31F480910603ED
:104270008160809306030895853F21F480910603B1
:104280008260F7CF863F21F4809106038460F1CFEE
:10429000873F21F4809106038860EBCF883F21F4AB
:1042A000809106038061E5CF8D3F31F48091040356
:1042B00081608093040308958E3F21F4809104036C
:1042C0008260F7CF8F3FB9F7809104038460F1CF0C
:1042D000803FC1F48091080387FD1092080380910C
:1042E000070381110EC08091080381110AC08091DB
:1042F0000903811106C080910A03811102C0109246
:1043000005030895813F29F48091080318162CF3C2
:10431000E6CF90910703823F29F497FFE0CF1092F8
:104320000703DDCF833F19F41916CCF3D8CF893FAB
:1043300039F480910903181694F610920903CFCF2F
:104340008A3F29F48091090387FFC9CFF6CF8B3FBD
:1043500039F480910A0387FFC2CF10920A03BFCFBE
:104360008C3F29F480910A031816BCF3B8CF843F20
:1043700031F4809106038E7F80930603B0CF853F92
:1043800021F4809106038D7FF7CF863F21F4809141
:1043900006038B7FF1CF873F21F480910603877F4F
:1043A000EBCF883F21F4809106038F7EE5CF8D3FD0
:1043B00031F4809104038E7F8093040390CF8E3F6D
:1043C00021F4809104038D7FF7CF8F3F09F087CFD1
:1043D000809104038B7FF0CF86E093E00E940B1363
:1043E0000E94EB1F909302038093010308951F9393
:1043F000CF93DF9380910103909102030E94F71FF6
:10440000AC01909105039923D1F020915A0130E03D
:104410004217530780F080910703C0910803D091A1
:10442000090310910A03811111C0C1117FC0D1117C
:104430007DC011117BC0DF91CF911F910895209114
:1044400003038AE0289F90011124E2CF9F3F19F0D7
:104450009F5F90930503181624F40E948120809397
:1044600007038091070387FF05C00E948120819583
:10447000809307031C1624F40E9481208093080374
:104480008091080387FF05C00E9481208195809359
:10449000080360910703662331F1C0910803CC2320
:1044A00011F1062E000C770B880B990B0E94E72B5D
:1044B00023E333E343E35FE30E944B2C0E94AF2BE3
:1044C000609307036C2FCC0F770B880B990B0E941E
:1044D000E72B23E333E343E35FE30E944B2C0E948B
:1044E000AF2B609308031D1624F40E94C92080930B
:1044F00009038091090387FF05C00E94C9208195A7
:1045000080930903111624F40E94C92080930A03A2
:1045100080910A0387FF05C00E94C920819580937E
:104520000A03DF91CF911F910C94EC219F3F09F07A
:104530008FCFA0CFE6E0F3E085E0DF011D928A9502
:10454000E9F710920503109204030895833081F176
:1045500028F4813059F08230D1F00895853009F483
:1045600049C0B8F1863009F456C00895809103031C
:10457000262F30E0280F311D2F3F310524F4680F1E
:104580006093030308958FEF809303030895809150
:104590005A01262F30E0280F311D2F3F310524F41A
:1045A000680F60935A0108958FEF80935A01089520
:1045B00080915901262F30E0280F311D2F3F310502
:1045C00024F4680F6093590108958FEF8093590187
:1045D000089580915801262F30E0280F311D2F3F7C
:1045E000310524F4680F6093580108958FEF80938C
:1045F0005801089580915701262F30E0280F311D72
:104600002F3F310524F4680F6093570108958FEF11
:1046100080935701089520915601862F90E0820FD4
:10462000911D8F3F910524F4620F60935601089508
:104630008FEF809356010895833011F128F4813073
:1046400049F0823091F00895853081F120F1863073
:10465000C1F1089580910303681720F4861B8093AD
:104660000303089510920303089580915A01681777
:1046700020F4861B80935A01089510925A010895E0
:1046800080915901681720F4861B80935901089581
:1046900010925901089580915801681720F4861BE3
:1046A0008093580108951092580108958091570100
:1046B000681720F4861B80935701089510925701C4
:1046C000089580915601681720F4861B8093560147
:1046D00008951092560108950F931F9341E050E002
:1046E00060E070E08A019B0104C0000F111F221FCF
:1046F000331F8A95D2F7C901B8010E94371C1F9158
:104700000F910C944418873208F04CC08E3108F099
:1047100098C0803109F487C0E0F4873009F474C090
:1047200028F4863009F466C080E008958B3009F4DF
:104730005FC08E30C9F78091FF0282FB992790F904
:1047400021E0922790FB82F98093FF0282FD26C030
:104750004FC0863109F44CC080F4813129F70E94A2
:1047600044188091770387FB992790F921E09227DD
:1047700090FB87F9809377033BC08931C9F18B3176
:1047800099F68091FF0281FB992790F921E0922709
:1047900090FB81F98093FF0281FF2AC08091FF0284
:1047A00081603EC0883321F148F4893229F0853395
:1047B00019F0873209F0B8CF80E007C08334E1F305
:1047C00038F48A3308F4B0CF89530E946C2310C0A8
:1047D000883409F0A9CF0E9444182FEF83ED90E3AD
:1047E000215080409040E1F700C000000E94462028
:1047F00081E008958091FF02817F8E7F8093FF0288
:1048000081E080930C0308958091FF02982F90958A
:1048100090FB80F98093FF0280FDEACF897F877F3C
:104820008093FF02E5CF8091FF0283FB992790F9E7
:1048300021E0922790FB83F98093FF0283FDAECFA6
:10484000D7CF8D51C2CF80E008950C9423248E5190
:104850008A3030F4E82FF0E0E25FFD4F8081089568
:1048600080E00895CF93C82F80910C038130E1F050
:1048700038F0823009F43FC010920C0380E012C07F
:10488000E0915401F09155018081813111F0823223
:10489000A9F78C2F0E94252481111DC08C2F0E9406
:1048A00083238170CF910895E0915401F0915501D7
:1048B0008081813171F3823261F38C2F0E94232435
:1048C000811110C0C43181F048F4CB3059F0C031AF
:1048D00071F080E0E6CF81E090E0E3CFC93221F0D3
:1048E000C833B9F781E0DDCF10920C03F2CF82E03C
:1048F00080930C03F7CFC93219F188F4C43101F168
:1049000020F4C73081F181E0CDCF82EE8C0F86306C
:10491000D0F78C2F0E94272480930B03F4CFCE3442
:1049200001F120F4CB3479F76AE005C0C13599F084
:10493000C23549F761E080910B030E94A622E3CFC4
:1049400080910B03882319F010920B03DCCF81E0D8
:1049500080930C03A7CF61E080910B030E941C237E
:10496000D2CF6AE0F9CF1092030394E190935A01F9
:104970008093590185E08093580188E08093570126
:1049800088E280935601BFCF80912D030895CF9385
:10499000DF9300D01F92CDB7DEB79C0180917D03DD
:1049A000843019F593E099833B832A839093E9003F
:1049B0008FEF9091E800815095FD06C095ED9A9596
:1049C000F1F700008111F5CF8091E80085FF0DC05F
:1049D00040E050E063E070E0CE0101960E942427A1
:1049E0008091E8008E778093E8000F900F900F90F1
:1049F000DF91CF910895CF93DF9300D01F92CDB771
:104A0000DEB720917D03243031F522E029838058E0
:104A100091099B838A8383E08093E9008FEF9091D3
:104A2000E800815095FD06C095ED9A95F1F70000DC
:104A30008111F5CF8091E80085FF0DC040E050E086
:104A400063E070E0CE0101960E9424278091E80087
:104A50008E778093E8000F900F900F90DF91CF91A9
:104A600008959C0180917D038430F9F482E0809365
:104A7000E9009FEF8091E800915085FD06C085ED2B
:104A80008A95F1F700009111F5CF8091E80085FF3C
:104A90000CC040E050E065E070E0C9010E942427AE
:104AA0008091E8008E778093E8000895CF93DF939C
:104AB000EC0180917D03843071F59091650199231B
:104AC00069F19091770397FF29C08093E9008FEFF8
:104AD0009091E800815095FD06C095E19A95F1F717
:104AE00000008111F5CF8091E80085FF14C040E0FF
:104AF00050E060E270E0CE010E9424278091E8003F
:104B00008E778093E80080E2FE01ADE0B3E0019093
:104B10000D928A95E1F7DF91CF91089581E080931E
:104B2000E9008FEF9091E800815095FD06C095ED6A
:104B30009A95F1F700008111F5CF8091E80085FF8B
:104B4000EACF40E050E068E070E0D5CF80917C0390
:104B5000811109C00E94B1280E940E298091E200B3
:104B600084608093E200089510927C030895089574
:104B700008950C94B31F42E061EC81E00E942E285E
:104B800042E061EC82E00E942E2842E061EC83E08A
:104B90000E942E2842E261EC84E00C942E28809141
:104BA0007F03833009F455C030F4813071F18230D5
:104BB00009F491C008958A3009F47DC08B3009F45E
:104BC00063C0893009F044C080917E03813209F0CE
:104BD0003FC08091820390918303009711F0039767
:104BE000B9F58091E800877F8093E8008091E80024
:104BF00082FF2AC08091F10080932D038091E8000C
:104C00008B778093E8000C94632880917E03813A2F
:104C1000F9F48091E800877F8093E8008091820317
:104C200090918303892B61F460E28DE093E070E062
:104C30000E9473278091E8008B778093E8000895A5
:104C400060E080E090E0F3CF80917D038111CECFD2
:104C5000089580917E03813AD9F7809182039091E3
:104C60008303892BA9F78091E800877F8093E80070
:104C70008091E80080FFFCCF809165018093F10076
:104C80008091E8008E77BDCF80917E03813201F75D
:104C90008091820390918303892BD1F68091E80063
:104CA000877F8093E8000E9463288091800380932F
:104CB00065010C94441880917E03813249F68091FD
:104CC000E800877F8093E8000E9463288091810339
:104CD00080932E03089580917E03813A09F0B8CF26
:104CE0008091E800877F8093E8008091E80080FF52
:104CF000FCCF80912E03C2CF84B7877F84BF0FB6CD
:104D0000F894A8958091600088618093600010926B
:104D100060000FBE80E880936100109261000E94E5
:104D200043130E94B1280E940E298091E200846002
:104D30008093E20078940E94932B0E9445138BE5A8
:104D400091E00E94EF1280917D03853029F00E944E
:104D50004D130E949311F7CF0E94721F80917B0325
:104D6000882389F30E949F1F882369F30E940E27DE
:104D7000EACF292F33272330310579F158F4213038
:104D80003105F1F02230310519F180E090E020E0AA
:104D900030E01AC02132310599F122323105A9F7EC
:104DA000643098F770E0FB01EE0FFF1FE45EFD4FEB
:104DB00020813181685E7D4FFB01808190E004C0DD
:104DC00082E190E020E936E0FA0131832083089502
:104DD0008DE690E023E236E0F7CF99278130910508
:104DE00061F028F0029789F6EFEEF5E002C0EFE1FE
:104DF000F6E0849190E09F01E7CFE7E0F6E0F9CF9D
:104E0000643008F0C2CFE62FF0E0EE0FFF1FEC5D3C
:104E1000FD4F2081318189E090E0D6CF80E189BDCE
:104E200082E189BD09B400FEFDCF8091D8008F7D5D
:104E30008093D8008091E00082608093E0008091B0
:104E4000E00081FDFCCF0895AF92BF92DF92EF9218
:104E5000FF920F931F93CF93DF93EC018B017A01A5
:104E60000E948228D82E811124C0E114F10439F067
:104E7000F70180819181081B190BC80FD91FA12C44
:104E8000B12C01151105A9F08091E80085FD22C023
:104E90008091E8008E778093E800E114F104A1F09E
:104EA000F70180819181A80EB91EB182A08285E0B0
:104EB000D82E8D2DDF91CF911F910F91FF90EF9004
:104EC000DF90BF90AF9008950E9482288823C9F296
:104ED000D82EEFCF89918093F10001501109FFEF97
:104EE000AF1ABF0ACECF20918403309185032617D5
:104EF0003707A8F06115710529F42091E8002E7795
:104F00002093E800FC0120E06115710551F42111A6
:104F100008C08091E80082FF33C080E00895B901A5
:104F2000F1CF80917D038823B9F18530B9F180916B
:104F3000E80083FD2FC08091E80082FDEACF8091D8
:104F4000E80080FFE1CF2091F3008091F20090E033
:104F5000922B6115710519F08830910550F021E010
:104F6000089709F020E08091E8008E778093E800B0
:104F7000CBCF21912093F100615071090196E9CFC7
:104F800080917D03882341F0853041F08091E800D5
:104F900083FFBFCF81E0089582E0089583E0089504
:104FA000209184033091850326173707A8F06115F7
:104FB000710529F42091E8002E772093E800FC0188
:104FC00020E06115710551F4211108C08091E800BD
:104FD00082FF34C080E00895B901F1CF80917D0354
:104FE0008823C1F18530C1F18091E80083FD30C094
:104FF0008091E80082FDEACF8091E80080FFE1CF58
:105000002091F3008091F20090E0922B61157105E0
:1050100019F08830910550F021E0089709F020E060
:105020008091E8008E778093E800CBCF2491209385
:10503000F1003196615071090196E8CF80917D03AE
:10504000882341F0853041F08091E80083FFBECF96
:1050500081E0089582E0089583E00895982F9730C5
:1050600028F08F708093E90081E008959093E90023
:10507000981751F07091EC002091ED005091F000E4
:1050800021FD06C09F5FEBCF242F762F50E0F8CF95
:105090003091EB003E7F3093EB003091ED003D7F8F
:1050A0003093ED003091EB0031603093EB00709362
:1050B000EC002093ED005093F0002091EE0027FDCE
:1050C000E1CF80E0089580917E0387FF13C0809137
:1050D000E80082FF06C08091E8008B778093E800AB
:1050E00004C080917D038111F2CF089580917D03EA
:1050F0008823D9F38091E80080FFF8CF8091E80001
:105100008E77ECCF2091E4003091E50085E6909118
:10511000EC0090FD20C09091E80092FD20C090919D
:105120007D03992391F0953091F09091EB0095FDDE
:1051300010C04091E4005091E5004217530739F345
:1051400081509A0121F784E0089582E0089583E078
:10515000089581E008959091E80090FFE0CF80E00D
:1051600008950E941F290E942729E0EEF0E0808127
:1051700081608083E8EDF0E080818F77808319BCC7
:10518000A7EDB0E08C918E7F8C9380818F7E8083A1
:1051900010927C0308950F931F93CF93DF930E9487
:1051A0001F290E942729C8EDD0E088818F77888346
:1051B00088818068888388818F7D888319BC10925C
:1051C0007D031092790310927B0310927A0300EE14
:1051D00010E0F80180818B7F8083888181608883E3
:1051E00042E060E080E00E942E28E1EEF0E0808165
:1051F0008E7F8083E2EEF0E0808181608083808119
:1052000088608083F80180818E7F808388818061BF
:105210008883DF91CF911F910F910895E8EDF0E021
:1052200080818F7E8083E7EDF0E0808181608083E4
:1052300084E082BF81E080937C030C94CB28E8ED6E
:10524000F0E080818E7F80831092E20008951092BA
:10525000DA001092E10008951F920F920FB60F929C
:1052600011242F933F934F935F936F937F938F936B
:105270009F93AF93BF93EF93FF938091E10082FFE1
:105280000BC08091E20082FF07C08091E1008B7F1C
:105290008093E1000E94922B8091DA0080FF19C078
:1052A0008091D80080FF15C08091DA008E7F8093B6
:1052B000DA008091D90080FF94C080E189BD82E14D
:1052C00089BD09B400FEFDCF81E080937D030E947B
:1052D000A6258091E10080FF19C08091E20080FF47
:1052E00015C08091E2008E7F8093E2008091E20001
:1052F00080618093E2008091D80080628093D80022
:1053000019BC85E080937D030E94B8258091E1005F
:1053100084FF29C08091E20084FF25C080E189BD1F
:1053200082E189BD09B400FEFDCF8091D8008F7D58
:105330008093D8008091E1008F7E8093E10080917E
:10534000E2008F7E8093E2008091E2008160809392
:10535000E20080917903882309F449C084E08093B6
:105360007D030E94B9258091E10083FF29C08091CF
:10537000E20083FF25C08091E100877F8093E100F8
:1053800082E080937D03109279038091E1008E7F0B
:105390008093E1008091E2008E7F8093E200809113
:1053A000E20080618093E20042E060E080E00E94E1
:1053B0002E288091F00088608093F0000E94B7252D
:1053C000FF91EF91BF91AF919F918F917F916F91DD
:1053D0005F914F913F912F910F900FBE0F901F90B3
:1053E000189519BC10927D030E94B42572CF80914C
:1053F000E30087FD02C081E0B2CF83E0B0CF1F920F
:105400000F920FB60F9211242F933F934F935F93F8
:105410006F937F938F939F93AF93BF93CF93EF93AC
:10542000FF93C091E900CF708091EC001092E900E9
:105430008091F000877F8093F00078940E943B2A4F
:105440001092E9008091F00088608093F000C09392
:10545000E900FF91EF91CF91BF91AF919F918F9113
:105460007F916F915F914F913F912F910F900FBE60
:105470000F901F9018951F93CF93DF93CDB7DEB792
:10548000AA970FB6F894DEBF0FBECDBFEEE7F3E0EC
:105490008091F100819323E0E638F207C9F70E947A
:1054A000CF258091E80083FF44C080917E039091D6
:1054B0007F03492F50E04A30510508F03AC0FA0105
:1054C000EC59F54D0C94082D6E2A922A992A922AAD
:1054D000992AED2A102B992A652B722B803879F0A6
:1054E000823839F5809182038F708093E900809132
:1054F000EB0085FB882780F91092E90006C08091B7
:105500007A0390917B03911182609091E800977FDC
:105510009093E8008093F1001092F1008091E800F0
:105520008E772DC0282F2D7F21F48823D1F0823053
:1055300059F18091E80083FF0AC08091E800877FDD
:105540008093E8008091EB0080628093EB00AA9644
:105550000FB6F894DEBF0FBECDBFDF91CF911F9184
:10556000089580918003813021F7933009F080E025
:1055700080937B031092E9008091E800877F8093FD
:10558000E8000E946328D5CF809180038111F2CF7B
:10559000809182038F7069F28093E9002091EB0083
:1055A00020FFE8CF933031F48091EB00806280934C
:1055B000EB00E0CF9091EB0090619093EB0021E045
:1055C00030E001C0220F8A95EAF72093EA0010929A
:1055D000EA008091EB008860EACF8111AACF109198
:1055E00080031F778091E3008078812B8093E30014
:1055F0008091E800877F8093E8000E946328809173
:10560000E80080FFFCCF8091E30080688093E30096
:10561000111104C082E080937D038BCF83E0FBCF28
:105620008058823008F085CF80918003909181036B
:105630008C3D23E09207A1F583E08A838AE2898387
:105640004FB7F894DE01139620E03EE051E2E32FDD
:10565000F0E050935700E49120FF03C0E295EF7013
:105660003F5FEF708E2F90E0EA30C0F0C7968D93C9
:105670009D932F5F243159F74FBF8091E800877FBA
:105680008093E8006AE270E0CE0101960E947327E1
:105690008091E8008B778093E8004BCFC096E7CFEE
:1056A000AE014F5F5F4F609182030E94B926BC013B
:1056B000892B09F43ECF9091E800977F9093E80002
:1056C00089819A810E94D027E3CF803809F031CFB9
:1056D0008091E800877F8093E80080917903809330
:1056E000F1001CCF811125CF90918003923008F0FA
:1056F00020CF8091E800877F8093E8009093790322
:105700000E94632880917903882311F084E005C00A
:105710008091E30087FDFACF81E080937D030E94B2
:10572000BB2507CF0895CF9380917D03882399F0FF
:10573000C091E900CF708091EC0080FD0EC080E048
:10574000C82B1092E9008091E80083FD0E943B2A5B
:10575000CF70C093E900CF91089580E8F1CF0E9407
:10576000B62B6894B1110C94452C08950E942A2CF4
:1057700088F09F5798F0B92F9927B751B0F0E1F012
:10578000660F771F881F991F1AF0BA95C9F714C0C2
:10579000B13091F00E94442CB1E008950C94442C57
:1057A000672F782F8827B85F39F0B93FCCF38695FB
:1057B00077956795B395D9F73EF490958095709558
:1057C00061957F4F8F4F9F4F0895E89409C097FBD5
:1057D0003EF490958095709561957F4F8F4F9F4FC8
:1057E0009923A9F0F92F96E9BB279395F69587950C
:1057F00077956795B795F111F8CFFAF4BB0F11F4CF
:1058000060FF1BC06F5F7F4F8F4F9F4F16C0882375
:1058100011F096E911C0772321F09EE8872F762FAB
:1058200005C0662371F096E8862F70E060E02AF0EC
:105830009A95660F771F881FDAF7880F96958795D8
:1058400097F9089557FD9058440F551F59F05F3F41
:1058500071F04795880F97FB991F61F09F3F79F092
:1058600087950895121613061406551FF2CF469514
:10587000F1DF08C0161617061806991FF1CF869596
:105880007105610508940895E894BB27662777277A
:10589000CB0197F908950E945E2C0C94CF2C0E94A6
:1058A000C12C38F00E94C82C20F0952311F00C94E4
:1058B000B82C0C94BE2C11240C94452C0E94222C44
:1058C00070F3959FC1F3950F50E0551F629FF00153
:1058D000729FBB27F00DB11D639FAA27F00DB11D6C
:1058E000AA1F649F6627B00DA11D661F829F2227F5
:1058F000B00DA11D621F739FB00DA11D621F839F7C
:10590000A00D611D221F749F3327A00D611D231F51
:10591000849F600D211D822F762F6A2F11249F579F
:1059200050409AF0F1F088234AF0EE0FFF1FBB1FA2
:10593000661F771F881F91505040A9F79E3F510561
:1059400080F00C94B82C0C94452C5F3FE4F3983E07
:10595000D4F3869577956795B795F795E7959F5F0B
:10596000C1F7FE2B880F911D9695879597F908959D
:1059700097F99F6780E870E060E008959FEF80EC02
:10598000089500240A9416161706180609060895A5
:1059900000240A9412161306140605060895092E0B
:1059A0000394000C11F4882352F0BB0F40F4BF2B7A
:1059B00011F460FF04C06F5F7F4F8F4F9F4F0895BA
:1059C000AA1BBB1B51E107C0AA1FBB1FA617B70725
:1059D00010F0A61BB70B881F991F5A95A9F7809541
:1059E0009095BC01CD01089597FB072E16F4009405
:1059F00007D077FD09D00E94E02C07FC05D03EF4CB
:105A0000909581959F4F0895709561957F4F08956A
:105A1000EE0FFF1F0590F491E02D0994F999FECF48
:105A200092BD81BDF89A992780B50895A6E1B0E0AE
:105A300044E050E00C94482DA8E1B0E042E050E092
:105A40000C94482D262FF999FECF92BD81BDF89A6E
:105A5000019700B4021639F01FBA20BD0FB6F894B2
:105A6000FA9AF99A0FBE08950396272F0E94232DC4
:105A70000E94222D252F0E94232D242F0C94232DAC
:105A80000196272F0E94232D0C94222DDC01CB019F
:105A9000FC01F999FECF06C0F2BDE1BDF89A31963E
:105AA00000B40D9241505040B8F70895F894FFCFDC
:105AB000050000DE11EE1100000000000000004DA6
:105AC000010000DE11EE110000000000000000499E
:105AD000010000DE11EE1100000000000000004592
